:100000000C94460018950000189500001895000003
:10001000189500001895000018950000189500002C
:100020001895000018950000189500000C943353A3
:100030001895000018950000189500000C947005A4
:1000400018950000189500000C9470041895000095
:100050000C94C70018950000189500001895000032
:1000600018950000189500001895000018950000DC
:100070000C94C40118950000189500001895000014
:100080001895000018950000189500008FEF8DBF9F
:10009000C0E0E8E14E2E80E48EBFD0E4FEE35F2EA8
:1000A000A89584B7082E877F84BF88E1992780931D
:1000B000600090936000EEEFFFE3A0E0B1E08827DE
:1000C0008D933197E9F78FE28093C40080E08093AD
:1000D000C50088E18093C10080E08093CD0087E077
:1000E0008093CC0088E18093C9006624389A399ABD
:1000F000419A2098219808980998289A299A109A44
:10010000119A2B98239A0D9885E085BD80E084BDD7
:1001100070916E00716070936E0085E085BD80E027
:100120008093800084E08093810070916F00716003
:1001300070936F0084E0809381007091C1007068BB
:100140007093C1007091C90070687093C90080E21B
:100150008093B60085E08093B1007091700071606B
:10016000709370000E94B55786E880937A0080E013
:1001700080937C0070917A00786070937A0070911F
:100180007A00706870937A0078940C944E4B0F92BA
:100190001F922F923F924F925F927F92AF92BF92A7
:1001A0000F931F932F933F934F935F936F937F937F
:1001B0008F939F93AF93BF93CF93DF93EF93FF936F
:1001C0008FB78F938BB78F9388278BBFA9E2BCE142
:1001D0008091C6008C9385E2482F0091291C04175A
:1001E00011F00C94FE007091DB0674607093DB06D6
:1001F000A0E6BBE188278C930C94A50184E2482FEC
:10020000041711F00C940F017091DB06716070936C
:10021000DB06ADEBBCE088278C930C94A5010D3078
:1002200011F00C947C01ABEDB6E08C9182FB16F0E2
:100230000C9437017091DB067B7F7093DB0680E0C6
:10024000A0E6BBE10E94024F8D9388278C93E0E6E5
:10025000FBE1AAE2BCE10E94C9547091DB06726026
:100260007093DB0670916E00716070936E00ABED61
:10027000B6E08C9180FB16F00C947A017091DB064D
:100280007E7F7093DB0680E0ADEBBCE00E94024F06
:100290008D9388278C93ADE5BBE10C9140E10E94E2
:1002A0001A558C93ADE5BBE18C918F5F8C93EDEB90
:1002B000FCE0ADE5BBE10D91112749EC50E00E9457
:1002C0002D52A4EFBDE0A00FB11F0E94C95481E0E0
:1002D000ADE5BBE1AD90BB24ACE4BBE1AA0DBB1D19
:1002E0008C93ADEBBCE088278C937091BC0C70684C
:1002F0007093BC0C0C94A5010F3118F011F00C9404
:1003000083010C94A501ABEDB6E08C9182FB16F055
:100310000C949401A9E2BCE18C91A0E6BBE10E949F
:10032000024F8D9388278C93ABEDB6E08C9180FBC8
:1003300016F00C94A501A9E2BCE18C91ADEBBCE0F8
:100340000E94024F8D9388278C938F918BBF8F9142
:100350008FBFFF91EF91DF91CF91BF91AF919F91AF
:100360008F917F916F915F914F913F912F911F914D
:100370000F91BF90AF907F905F904F903F902F90E4
:100380001F900F90189508950F921F922F923F92F1
:100390004F925F927F92AF92BF920F931F932F93D2
:1003A0003F934F935F936F937F938F939F93AF93FD
:1003B000BF93CF93DF93EF93FF938FB78F938BB759
:1003C0008F9388278BBFA5EFBCE18091CE008C93E3
:1003D000ACEBBCE08C9186FB16F00C940A02A3EF08
:1003E000BCE10E94BB4E8091F51CA3EFBCE1AD9037
:1003F000BD90A5EFB1E2AA0DBB1D8C93A3EFBCE1AC
:100400000D911C9148EE53E00E94E84EA3EFBCE131
:100410000D931C9381E00E942752A5EFBCE18C91C3
:10042000A881B9818D9388278C93A881B981E4E252
:10043000F0EB0E9418530E9430550FB681E0481A25
:1004400080E0580A22960FBE11F00C942F0281E032
:100450008093AB027091880274607093880200915F
:10046000F51C0A3011F00C943B0480E0A6EFB0E2DA
:100470000E94024F8D9388278C93AAEAB2E08C9158
:100480008F5F8C930091AA02013011F00C945002FE
:10049000E6EFF0E2A6EFBDE10E94C9540C9483029E
:1004A000023011F00C945C02E6EFF0E2A6EFBEE140
:1004B0000E94C9540C948302033011F00C9468021A
:1004C000E6EFF0E2A6EFBFE10E94C9540C9483026C
:1004D000043011F00C947402E6EFF0E2A6EFBCE1F8
:1004E0000E94C9540C948302053011F00C948302CD
:1004F000E6EFF0E2A6EFBCE10E94C954709138012A
:10050000706270933801A6EFB0E2E6E2F0EB0E9471
:1005100018530E94305511F00C94930270913801D9
:10052000706270933801A6EFB0E2EAE2F0EB0E944D
:1005300018530E94305511F00C94A3027091880258
:10054000726070938802A6EFB0E2E6E3F0EB0E94DF
:1005500018530E94305511F00C94B3027091880228
:10056000726070938802A6EFB0E2E6E4F0EB0E94BE
:1005700018530E94305511F00C94C3027091AC02D4
:1005800070627093AC02A6EFB0E2EAE4F0EB0E9476
:1005900018530E94305511F00C94D30270915703F8
:1005A000706870935703A6EFB0E2E2E5F0EB0E94AB
:1005B00018530E94305511F00C94E30270915703C8
:1005C000706470935703A6EFB0E2ECE5F0EB0E9485
:1005D00018530E94305511F00C94F3027091570398
:1005E000706270935703A6EFB0E2E4E6F0EB0E946E
:1005F00018530E94305511F00C9403037091570367
:10060000706170935703A6EFB0E2EEE6F0EB0E9444
:1006100018530E94305511F00C9413037091570336
:10062000786070935703A6EFB0E2E8E7F0EB0E9422
:1006300018530E94305511F00C9423037091570306
:10064000726070935703A6EFB0E2E4E8F0EB0E940B
:1006500018530E94305511F00C94330370912F03FE
:10066000706470932F0381E091E00E94285281E032
:10067000E6EFF0E205E00A93A981BA810E94D45422
:10068000A881B981E6E9F0EB0E9418530E94305529
:100690000FB681E0481A81E0580A22960FBE11F089
:1006A0000C94570370912F03706270932F0381E0B5
:1006B00091E00E94285281E0E6EFF0E204E00A9324
:1006C000A981BA810E94D454A881B981ECE9F0EBE8
:1006D0000E9418530E9430550FB681E0481A81E0FD
:1006E000580A22960FBE11F00C947B0370915703A9
:1006F00071607093570381E091E00E94285281E07D
:10070000E6EFF0E205E00A93A981BA810E94D45491
:10071000A881B981E2EAF0EB0E9418530E9430559B
:100720000FB681E0481A81E0580A22960FBE11F0F8
:100730000C949F037091AC0274607093AC0281E0E2
:1007400091E00E94285281E0E6EFF0E206E00A9391
:10075000A981BA810E94D454A881B981E8EAF0EB5A
:100760000E9418530E9430550FB681E0481A81E06C
:10077000580A22960FBE11F00C94C3037091AC027C
:1007800072607093AC0281E091E00E94285286E092
:10079000E6EFF0E205E00A93A981BA810E94D45401
:1007A000A881B981E0EBF0EB0E9418530E9430550C
:1007B0000FB681E0481A81E0580A22960FBE11F068
:1007C0000C94E7037091380170627093380181E0F6
:1007D00091E00E94285286E0E6EFF0E205E00A93FD
:1007E000A981BA810E94D454A881B981E0EBF0EBD1
:1007F0000E9418530E9430550FB681E0481A81E0DC
:10080000580A22960FBE11F00C940B047091380117
:1008100070627093380181E091E00E94285281E07B
:10082000E6EFF0E206E00A93A981BA810E94D4546F
:10083000A881B981E6EBF0EB0E9418530E94305575
:100840000FB681E0481A81E0580A22960FBE11F0D7
:100850000C94350470918802716070938802E6EF01
:10086000F0E2ADEAB2E00E94C954A6EFB0E28827F8
:100870008C930C9452040A3011F40C94520400919D
:10088000F51C0F3118F011F00C9448040C9452042C
:10089000A5EFBCE18C91A6EFB0E20E94024F8D93D0
:1008A00088278C938F918BBF8F918FBFFF91EF9192
:1008B000DF91CF91BF91AF919F918F917F916F9178
:1008C0005F914F913F912F911F910F91BF90AF90EA
:1008D0007F905F904F903F902F901F900F901895B2
:1008E0000F921F922F923F924F925F927F92AF9200
:1008F000BF920F931F932F933F934F935F936F93E9
:100900007F938F939F93AF93BF93CF93DF93EF9397
:10091000FF938FB78F938BB78F9388278BBF78EB1D
:1009200076BDA7E7B2E08C918F5F8C93A7E7B2E02A
:100930000C9148E00E941A558C9300917702003088
:1009400011F00C94E304A8E7B2E00C9140E20E949D
:100950001A558C93E8E5F6E90E941853ADE7B2E02A
:100960008C919927A9E7B2E00E94CF52809178023A
:10097000A9E7B2E00E9403530E94F9520C900822AA
:10098000689409F4E894A8E3B1E08C9186F98C931B
:10099000A8E3B1E08C9186FB882780F9809580FBE5
:1009A000A8E3B1E08C9186F98C93A8E3B1E08C9137
:1009B00086FBA8E2B0E08C9180F98C93A8E7B2E0C6
:1009C0008C918F5F8C93A8E3B1E08C9184FB16F03F
:1009D0000C940205AEE7B2E00E94BB4EA0E8B2E084
:1009E0004D915C91AEE7B2E00D911C910417150793
:1009F00011F00C9400057091380170627093380109
:100A00000C94080580E090E0AEE7B2E08D939C93F3
:100A1000A8E3B1E08C9183FB16F00C942A05A2E8C0
:100A2000B2E00E94BB4EA4E8B2E04D915C91A2E816
:100A3000B2E00D911C910417150711F00C942A05D2
:100A40007091380174607093380170913801777F2C
:100A500070933801A8E3B1E08C9181FB16F00C94FF
:100A60004C05A6E8B2E00E94BB4EA6E8B2E00D91AC
:100A70001C91083057E0150711F00C944A0570914D
:100A8000380171607093380180E090E0A6E8B2E030
:100A90008D939C930C94520580E090E0A6E8B2E020
:100AA0008D939C938F918BBF8F918FBFFF91EF910F
:100AB000DF91CF91BF91AF919F918F917F916F9176
:100AC0005F914F913F912F911F910F91BF90AF90E8
:100AD0007F905F904F903F902F901F900F901895B0
:100AE0000F921F922F923F924F925F927F92AF92FE
:100AF000BF920F931F932F933F934F935F936F93E7
:100B00007F938F939F93AF93BF93CF93DF93EF9395
:100B1000FF938FB78F938BB78F9388278BBF80EC12
:100B200094EF9093850080938400ACE8B2E08C91C0
:100B30008F5F8C93ACE8B2E00C914AE00E941A55AA
:100B40008C9300918C02003011F00C94CC05A8E835
:100B5000B2E08C9185FB16F00C94C905AAE8B2E0CE
:100B60008C918F5F8C9300918A02409189020E9440
:100B70001A55AAE8B2E08C9300918A02003011F075
:100B80000C94C705709188027064709388020C946D
:100B9000CC0580E080938A0200274427A3E2B0E0DE
:100BA0008C9180FB00F9A8EFB6E08C9180FB40F9B6
:100BB000042700FBABEDB6E08C9185F98C93ABED8F
:100BC000B6E08C9185FBA7E0B7E08C9180F98C931F
:100BD00000274427A3E2B0E08C9181FB00F9A8EF45
:100BE000B6E08C9181FB40F9042700FBABEDB6E049
:100BF0008C9185F98C93ABEDB6E08C9185FBA7E0E9
:100C0000B7E08C9181F98C9300274427A0E2B0E0F3
:100C10008C9180FB00F9A8EFB6E08C9182FB40F943
:100C2000042700FBABEDB6E08C9185F98C93ABED1E
:100C3000B6E08C9185FBA7E0B7E08C9182F98C93AC
:100C400000274427A0E2B0E08C9181FB00F9A8EFD7
:100C5000B6E08C9183FB40F9042700FBABEDB6E0D6
:100C60008C9185F98C93ABEDB6E08C9185FBA7E078
:100C7000B7E08C9183F98C9381E080938D02009191
:100C80008D02023018F011F00C94AE0700918D0225
:100C900041E0041BAEE8B2E00C93ADE8B2E0AD90E9
:100CA000BB24A7E0B7E0AA0DBB1D0C91003011F0EA
:100CB0000C94760680918E02A7E0B7E00E94035361
:100CC0000E94F9520C900822689409F4E89416F4F2
:100CD0000C94740682E0ADE8B2E0AD90BB24A7E0CE
:100CE000B7E0AA0DBB1D8C930C94A607013011F040
:100CF0000C94960680918E02A7E0B7E00E94035301
:100D00000E94F9520C900822689409F4E89416F0B5
:100D10000C94940683E0ADE8B2E0AD90BB24A7E06C
:100D2000B7E0AA0DBB1D8C930C94A607023011F0FE
:100D30000C941F0780918E02A7E0B7E00E94035336
:100D40000E94F9520C900822689409F4E89416F075
:100D50000C94C40680E0ADE8B2E0AD90BB24A7E0FF
:100D6000B7E0AA0DBB1D8C9380E090E0ADE8B2E047
:100D7000AD90BB24ADE8B2E0AA0CBB1CAA0DBB1D14
:100D80008D939C930C941D07ADE8B2E0AD90BB240D
:100D9000ADE8B2E0AA0CBB1CAA0DBB1D0E94BB4E65
:100DA000ADE8B2E0AD90BB24ADE8B2E0AA0CBB1C4C
:100DB000AA0DBB1D0D911C91ADE8B2E0AD90BB2416
:100DC000A2EFB6E0AA0CBB1CAA0DBB1D4D915C9115
:100DD0000E94E84EADE8B2E0AD90BB24ADE8B2E0D1
:100DE000AA0CBB1CAA0DBB1D0D931C93ADE8B2E071
:100DF000AD90BB24ADE8B2E0AA0CBB1CAA0DBB1D94
:100E00000D911C91003050E0150711F00C941D0756
:100E100081E0ADE8B2E0AD90BB24A7E0B7E0AA0D59
:100E2000BB1D8C9380918E02A7E9B2E00E94035310
:100E30000E94F9529C91982B9C930C94A607033026
:100E400011F00C94A60780918E02A7E0B7E00E94F3
:100E500003530E94F9520C900822689409F4E89414
:100E600016F40C944D0781E0ADE8B2E0AD90BB24E0
:100E7000A7E0B7E0AA0DBB1D8C9380E090E0ADE841
:100E8000B2E0AD90BB24A1E9B2E0AA0CBB1CAA0D54
:100E9000BB1D8D939C930C94A607ADE8B2E0AD907A
:100EA000BB24A1E9B2E0AA0CBB1CAA0DBB1D0E9489
:100EB000BB4EADE8B2E0AD90BB24A1E9B2E0AA0C14
:100EC000BB1CAA0DBB1D0D911C91ADE8B2E0AD900D
:100ED000BB24AEEEB6E0AA0CBB1CAA0DBB1D4D9107
:100EE0005C910E94E84EADE8B2E0AD90BB24A1E970
:100EF000B2E0AA0CBB1CAA0DBB1D0D931C93ADE860
:100F0000B2E0AD90BB24A1E9B2E0AA0CBB1CAA0DD3
:100F1000BB1D0D911C91003050E0150711F00C9491
:100F2000A60780E0ADE8B2E0AD90BB24A7E0B7E053
:100F3000AA0DBB1D8C9380918E02A8E9B2E00E949D
:100F400003530E94F9529C91982B9C93ADE8B2E018
:100F50008C918F5F8C9310F40C943F068F918BBF14
:100F60008F918FBFFF91EF91DF91CF91BF91AF91A3
:100F70009F918F917F916F915F914F913F912F91B1
:100F80001F910F91BF90AF907F905F904F903F90D7
:100F90002F901F900F901895709188027068709331
:100FA0008802E2E0F1E00E94C851ADE2B1E00D93A9
:100FB0001D932D933D9381E080939A0200919A02B4
:100FC000033018F011F00C94600800919A0241E08F
:100FD000041BABE9B2E00C93ADE2B1E00D911D91C1
:100FE0002D913C91AAE9B2E0AD90BB24A9E1B8E013
:100FF000AA0CBB1CAA0CBB1CAA0DBB1D4D915D917C
:101000006D917C910E941A54A9E2B1E00D931D9359
:101010002D933D93A9E2B1E00D911D912D913C914D
:10102000AAE9B2E0AD90BB24ADE0B8E0AA0CBB1CCD
:10103000AA0CBB1CAA0DBB1D4D915D916D917C91BD
:101040000E94374FA9E2B1E00D931D932D933D937C
:1010500040E050E060E070E0A9E2B1E00D911D9148
:101060002D913C910E941F5411F00C9458088091CE
:101070009B02ABE8B2E00E9403530E94F9529C919C
:10108000982B9C93ADE2B1E00D911D912D913C9177
:10109000AAE9B2E0AD90BB24A8E9B2E0AA0CBB1C5F
:1010A000AA0CBB1CAA0DBB1D0D931D932D933C9345
:1010B000AAE9B2E08C918F5F8C9310F40C94DE0758
:1010C000ADE2B1E00D911D912D913C9145E050E0D4
:1010D00060E070E00E94374FA9E2B1E00D931D93EC
:1010E0002D933D9340E050E060E070E0A9E2B1E074
:1010F0000D911D912D913C910E941F5411F00C9463
:1011000086087091DB0670617093DB06A8E8B2E098
:101110008C9183FB16F00C94A908A8EAB2E08C919C
:101120008F5F8C93A8EAB2E00C9144E10E941A55BB
:101130008C930091A802003011F00C94A9087091D2
:10114000880270617093880270918802777F709333
:10115000880208954098EEEBF0EB0E9418530E942D
:10116000114F0E94184FA0E0BEE3E6EEF0EB0E94A4
:1011700018530E945A520E94094F0E94184FA0E033
:10118000BEE3EAEFF0EB0E9418530E945A520E940D
:10119000094F0E94184FA0E0BEE3E2E0F1EB0E948D
:1011A00018530E945A520E94094F0E94184F81E022
:1011B00080937D02E0E0F0E0A6E5B2E090E20E94DC
:1011C0001055E2E1F1EB0E9418530E94114FA6E581
:1011D000B2E00E940B4F0E94184FEAE6F1E0AAE34A
:1011E000BCE090E40E941055EBEAF1E0ABE7BCE014
:1011F00090E40E941055E8E1F1EB0E9418530E9420
:10120000114FAAE3BCE00E940B4FE4E2F0EB0E9416
:1012100018530E94114F0E94184FEEE1F1EB0E940B
:1012200018530E94114FABE7BCE00E940B4FE4E261
:10123000F0EB0E9418530E94114F0E94184FE1E2F8
:10124000F0E0A2ECB6E094E10E941055E8E2F1EB88
:101250000E9418530E94114FA2ECB6E00E940B4F5F
:10126000E4E2F0EB0E9418530E94114F0E94184FC5
:10127000E6E3F0E0A7EDB6E00E940855A7EDB6E082
:101280000E94BB4EE6E3F0E0A7EDB6E07BE70E94EC
:10129000EC54E2E3F1EB0E9418530E94114FE7ED8A
:1012A000F6E0A0E0BEE30E9432540E94094F0E9483
:1012B000184FE8E3F0E0A9EDB6E00E940855ECE332
:1012C000F1EB0E9418530E94114FE9EDF6E0A0E007
:1012D000BEE30E9432540E94094F0E94184F81E0E1
:1012E00080931A0100911A01023018F011F00C9449
:1012F000D80AEAE1F1E00191112741E050E00E94B3
:101300002D52EAE4F0E0E00FF11FAAE1B1E00D9107
:10131000112747E050E00E942D52A2EFB6E0A00F47
:10132000B11F90E00E941055E8E4F1EB0E941853C1
:101330000E94114FEAE1F1E0A0E0BEE30E944254B6
:101340000E94094FE0E5F1EB0E9418530E94114FF3
:10135000AAE1B1E00D91112747E050E00E942D5223
:10136000A2EFB6E0A00FB11F0E940B4F0E94184FD2
:10137000EAE1F1E0A190BB24E0E4F0E0AA0CBB1CA0
:10138000EA0DFB1DAAE1B1E0AD90BB24AEEEB6E0E4
:10139000AA0CBB1CAA0DBB1D0E940855E2E5F1EB8F
:1013A0000E9418530E94114FEAE1F1E0A0E0BEE371
:1013B0000E9442540E94094FE0E5F1EB0E9418534D
:1013C0000E94114FEAE1F1E0A190BB24EEEEF6E0BD
:1013D000AA0CBB1CEA0DFB1DA0E0BEE30E94325428
:1013E0000E94094FEEE5F1EB0E9418530E94114F45
:1013F0000E94184FEAE1F1E0A190BB24E4E4F0E0A0
:10140000AA0CBB1CEA0DFB1DAAE1B1E0AD90BB2408
:10141000A2EFB6E0AA0CBB1CAA0DBB1D0E9408558A
:10142000E6E6F1EB0E9418530E94114FEAE1F1E069
:10143000A0E0BEE30E9442540E94094FE0E5F1EBB8
:101440000E9418530E94114FEAE1F1E0A190BB24E1
:10145000E2EFF6E0AA0CBB1CEA0DFB1DA0E0BEE328
:101460000E9432540E94094FEEE5F1EB0E9418539E
:101470000E94114F0E94184F85E0AAE1B1E0AD90A3
:10148000BB24A9E0B7E0AA0DBB1D8C93EAE1F1E013
:101490000191112741E450E00E942D52ECE0F0E070
:1014A000E00FF11FAAE1B1E00D91112741E450E0F6
:1014B0000E942D52ABECB6E0A00FB11F90E40E9449
:1014C0001055EAE1F1E00191112741E450E00E945A
:1014D0002D52EEE8F0E0E00FF11FAAE1B1E00D912E
:1014E000112741E450E00E942D52ADE4B7E0A00F77
:1014F000B11F90E40E941055E2E7F1EB0E941853EF
:101500000E94114FEAE1F1E0A0E0BEE30E944254E4
:101510000E94094FE0E8F1EB0E9418530E94114F1E
:10152000AAE1B1E00D91112741E450E00E942D5253
:10153000ABECB6E0A00FB11F0E940B4FE4E2F0EB62
:101540000E9418530E94114F0E94184FE4E8F1EBDB
:101550000E9418530E94114FEAE1F1E0A0E0BEE3BF
:101560000E9442540E94094FE0E8F1EB0E94185398
:101570000E94114FAAE1B1E00D91112741E450E022
:101580000E942D52ADE4B7E0A00FB11F0E940B4F97
:10159000E4E2F0EB0E9418530E94114F0E94184F92
:1015A000AAE1B1E08C918F5F8C9310F40C947209D6
:1015B000EAE4F0E0A8EFB6E00E940655E2E9F1EBBC
:1015C0000E9418530E94114FD201E8EFF6E00E94EA
:1015D000B654D2010E940B4F0E94184FE1E5F1E092
:1015E000A0E1B8E00E940655EAE9F1EB0E94185329
:1015F0000E94114FD201E0E1F8E00E94B654D201FE
:101600000E940B4F0E94184F00274427A3E2B0E02E
:101610008C9180FB00F9A8EFB6E08C9180FB40F93B
:10162000042700FBABEDB6E08C9185F98C93ABED14
:10163000B6E08C9185FB16F40C94230B82E080932A
:1016400008070C94260B83E08093080700274427A3
:10165000A3E2B0E08C9181FB00F9A8EFB6E08C9199
:1016600081FB40F9042700FBABEDB6E08C9185F9D6
:101670008C93ABEDB6E08C9185FB16F40C94450B86
:1016800082E0809309070C94480B83E0809309075C
:1016900000274427A0E2B0E08C9180FB00F9A8EF7E
:1016A000B6E08C9182FB40F9042700FBABEDB6E07D
:1016B0008C9185F98C93A6EBB5E0E2EAF1EB0E9400
:1016C00018530E945A52ABEAB5E0ECEAF1EB0E94E3
:1016D00018530E945A52EBEAF5E0FA93EA93E6EBCC
:1016E000F5E00E941152A1E2B1E00D931D932D93FC
:1016F0003D93EEE3F0E0ABEEB6E094E00E940955D6
:10170000E6EBF1EB0E9418530E94114FEBEEF6E06E
:10171000A0E0BEE30E9435540E94094F0E94184F7A
:10172000EBEEF6E0A0E0BEE30E9409520E94094FF2
:101730000E94184FEBEEF6E0A0E0BEE30E940152DB
:101740000E94094F0E94184FA7EEB6E0EAE3F0E0CE
:1017500094E00E940955E0ECF1EB0E9418530E94BE
:10176000114FE7EEF6E0A0E0BEE30E947B550E9439
:10177000AD4F0E94094F0E94184F81E080932001D5
:1017800000912001033018F011F00C94530CE0E2AA
:10179000F1E0A190BB24EEE4F1E0AA0CBB1CAA0C82
:1017A000BB1CEA0DFB1DA0E2B1E0AD90BB24ADE097
:1017B000B8E0AA0CBB1CAA0CBB1CAA0DBB1D94E074
:1017C0000E940955E0E2F1E0A190BB24EAE5F1E0D6
:1017D000AA0CBB1CAA0CBB1CEA0DFB1DA0E2B1E0CD
:1017E000AD90BB24A9E1B8E0AA0CBB1CAA0CBB1CA1
:1017F000AA0DBB1D94E00E940955E6ECF1EB0E9496
:1018000018530E94114FE0E2F1E0A0E0BEE30E9415
:1018100042540E94094FE0E5F1EB0E9418530E94E8
:10182000114FE0E2F1E0A190BB24EDE0F8E0AA0C5A
:10183000BB1CAA0CBB1CEA0DFB1DA0E0BEE30E9472
:1018400035540E94094FEAECF1EB0E9418530E94B4
:10185000114FE0E2F1E0A0E0BEE30E9442540E949A
:10186000094FE0E5F1EB0E9418530E94114FE0E2AE
:10187000F1E0A190BB24E9E1F8E0AA0CBB1CAA0CA2
:10188000BB1CEA0DFB1DA0E0BEE30E9435540E9484
:10189000094F0E94184FA0E2B1E08C918F5F8C93AA
:1018A00010F40C94C00B70918802706170938802E0
:1018B000709138017F7770933801ECEEF1E0AFE57D
:1018C000BBE10E940655E0EDF1EB0E9418530E9427
:1018D000114FEFE5FBE1A0E0BEE30E9442540E94FD
:1018E000094F0E94184F089581E0EAE2FCE106E00A
:1018F0000A93ADE1B2E00E94D454EAE2FCE19CE23A
:1019000000E430E1AAE2B8E00E944655A9E2B8E05E
:101910002C93AAE2B8E00E942A55082F063011F055
:101920000C94D01EEAE2F8E0ABE3B1E00E94C954A7
:10193000EBE3F1E0ABE3B1E00E94ED528FEF809377
:101940000B02ABE3B1E0EAEDF1EB0E9418530E9409
:10195000305511F00C94ED0C80E080930B02A2E462
:10196000B1E0E2EEF1EB0E9418530E945A52ADE151
:10197000B2E0E6EEF0EB0E9418530E945A52EDE1FD
:10198000F2E0A2E4B1E00E94024F0E94C954A2E436
:10199000B1E00E94024FE6EFF1EB0E9418530E9463
:1019A0005A52ADE1B2E0E2E0F1EB0E9418530E941E
:1019B0005A52EDE1F2E0A2E4B1E00E94024F0E942F
:1019C000C954A2E4B1E00E94024FE4E2F0EB0E94AD
:1019D00018530E945A520C94CE1EE4E0F2EB0E947F
:1019E00018530E94305511F00C942C0D00912908C9
:1019F000023011F00C94270DABE6B8E00E9487543A
:101A0000AAE1B1E00C9300911A01013110F00C949D
:101A1000220D80E080930B02A2E4B1E0ECE0F2EB57
:101A20000E9418530E945A52EAE1F1E0A2E4B1E0A8
:101A30000E94024F0E94425480911A0180937D02BD
:101A40000C94250D85E080930B020C942A0D84E004
:101A500080930B020C94CE1EE4E2F2EB0E9418532A
:101A60000E94305511F00C94A50D00912908023008
:101A700011F00C94A00D80E080930B02A2E4B1E081
:101A8000ECE2F2EB0E9418530E945A52EBE6F8E0A7
:101A9000A2E4B1E00E94024F0E94C954A2E4B1E066
:101AA0000E94024FE4E2F0EB0E9418530E945A5247
:101AB000EBE6F8E0D2010E94C95485E60E94275265
:101AC00084EF91E0D2018D939C9382E00E94275293
:101AD0000E94C225249687E60E942352E6E3F2EB99
:101AE0000E9418530E94114FA6EFBDE10E940B4FB8
:101AF0000E94184FEAE3F2EB0E9418530E94114F24
:101B0000A6EFBEE10E940B4F0E94184FEEE3F2EBEE
:101B10000E9418530E94114FA6EFBFE10E940B4F85
:101B20000E94184FE2E4F2EB0E9418530E94114FFA
:101B3000A6EFBCE10E940B4F0E94184F0C94A30D1E
:101B400084E080930B020C94CE1EE6E4F2EB0E943C
:101B500018530E94305511F00C94E90D84E08093E5
:101B60000B0200912908023011F00C94CD0D80E099
:101B700080930B027091AC0271607093AC02A2E48E
:101B8000B1E0EEE4F2EB0E9418530E945A52EBE6E9
:101B9000F8E0ADEFB2E00E94C9540091290803308B
:101BA00011F00C94E70D80E080930B02EBE6F8E077
:101BB000ADEFB2E00E94C954ECEAF8E0A2E4B1E073
:101BC0000E94C9547091AC0271607093AC020C9485
:101BD000CE1EEEE5F2EB0E9418530E94305511F034
:101BE0000C94290E00912908023011F00C94240E57
:101BF00080E080930B02EBE6F8E0A6E5B2E00E94FD
:101C0000C954E0E0F0E0A6E5B2E07BE70E94FB54B7
:101C1000A2E4B1E0E6E6F2EB0E9418530E945A52A9
:101C2000E6E5F2E0A2E4B1E00E94024F0E94C9544E
:101C3000A2E4B1E00E94024FE4E2F0EB0E941853EC
:101C40000E945A520C94270E84E080930B020C944D
:101C5000CE1EECE7F2EB0E9418530E94305511F0B3
:101C60000C94510E80E080930B02A2E4B1E0E4E812
:101C7000F2EB0E9418530E945A52E6E5F2E0A2E409
:101C8000B1E00E94024F0E94C954A2E4B1E00E9458
:101C9000024FE4E2F0EB0E9418530E945A520C9457
:101CA000CE1EEAE8F2EB0E9418530E94305511F064
:101CB0000C948D0E00912908013011F00C94720ED5
:101CC00080E080930B02A2E4B1E0E2E9F2EB0E9433
:101CD00018530E945A5270912F03706170932F0312
:101CE0000C948B0E00912908023011F00C94880E90
:101CF00080E080930B02EBE6F8E0A2E4B1E00E9402
:101D0000C95470912F03706170932F030C948B0E44
:101D100084E080930B020C94CE1EEEE9F2EB0E945D
:101D200018530E94305511F00C94CD0E00912908E3
:101D3000023011F00C94C80E80E080930B02EBE6A9
:101D4000F8E0AAE3BCE00E94C954EAE6F1E0AAE3A5
:101D5000BCE07BE70E94FB54A2E4B1E0E6EAF2EBD0
:101D60000E9418530E945A52EAE3FCE0A2E4B1E058
:101D70000E94024F0E94C954A2E4B1E00E94024FA7
:101D8000E4E2F0EB0E9418530E945A520C94CB0EDE
:101D900084E080930B020C94CE1EE8EBF2EB0E94E1
:101DA00018530E94305511F00C940D0F0091290822
:101DB000023011F00C94080F80E080930B02EBE6E8
:101DC000F8E0ABE7BCE00E94C954EBEAF1E0ABE716
:101DD000BCE07BE70E94FB54A2E4B1E0E0ECF2EB54
:101DE0000E9418530E945A52EBE7FCE0A2E4B1E0D3
:101DF0000E94024F0E94C954A2E4B1E00E94024F27
:101E0000E4E2F0EB0E9418530E945A520C940B0F1C
:101E100084E080930B020C94CE1EE6EDF2EB0E9460
:101E200018530E94305511F00C94400F009129086E
:101E3000013011F00C943B0F80E080930B02A2E480
:101E4000B1E0EEEDF2EB0E9418530E945A52EAE321
:101E5000FCE0A2E4B1E00E94024F0E94C954A2E457
:101E6000B1E00E94024FE4E2F0EB0E9418530E949E
:101E70005A520C943E0F84E080930B020C94CE1EB9
:101E8000E4EEF2EB0E9418530E94305511F00C94CE
:101E9000730F00912908013011F00C946E0F80E04F
:101EA00080930B02A2E4B1E0EEE1F1EB0E94185343
:101EB0000E945A52EBE7FCE0A2E4B1E00E94024F1C
:101EC0000E94C954A2E4B1E00E94024FE4E2F0EBA8
:101ED0000E9418530E945A520C94710F84E0809310
:101EE0000B020C94CE1EECEEF2EB0E9418530E94F3
:101EF000305511F00C948B0F80E080930B020E9400
:101F0000A23CA2E4B1E0E4EFF2EB0E9418530E947D
:101F10005A520C94CE1EE4E2F3EB0E9418530E9436
:101F2000305511F00C94CB0F00912908023011F0BC
:101F30000C94C60F80E080930B02EBE6F8E0A2EC75
:101F4000B6E00E94C954E1E2F0E0A2ECB6E07BE723
:101F50000E94FB54A2E4B1E0ECE2F3EB0E941853C0
:101F60000E945A52E2ECF6E0A2E4B1E00E94024F75
:101F70000E94C954A2E4B1E00E94024FE4E2F0EBF7
:101F80000E9418530E945A520C94C90F84E0809307
:101F90000B020C94CE1EE2E4F3EB0E9418530E9455
:101FA000305511F00C94F30F80E080930B02A2E403
:101FB000B1E0EAE4F3EB0E9418530E945A52E2ECBB
:101FC000F6E0A2E4B1E00E94024F0E94C954A2E4EC
:101FD000B1E00E94024FE4E2F0EB0E9418530E942D
:101FE0005A520C94CE1EE4E5F3EB0E9418530E9463
:101FF000305511F00C94381080E080930B02A2E46D
:10200000B1E0ECE5F3EB0E9418530E945A52EEE661
:10201000F3EB0E9418530E94114F0E94184F2B9A05
:10202000A89584E690E0D2018D939C9382E00E9473
:1020300027520E94542E229682E00E9423522B980F
:102040008CE291E0D2018D939C9382E00E94275212
:102050000E94542E229682E00E942352EAE7F3EB7C
:102060000E9418530E94114F0E94184F0C94CE1ECC
:10207000E6E8F3EB0E9418530E94305511F00C94DF
:10208000531080E080930B02A2E4B1E0EEE8F3EBA2
:102090000E9418530E945A527091DB06706470932C
:1020A000DB060C94CE1EEEE9F3EB0E9418530E945F
:1020B000305511F00C94C11100912908023011F033
:1020C0000C94BC11ABE6B8E00E942A55082F0C30E6
:1020D00011F00C94B71180E080930B0287E0EBE6DF
:1020E000F8E002E00A93ADE1B2E00E94D454ADE121
:1020F000B2E00E94024FE6EAF3EB0E9418530E94FE
:102100005A5289E0EBE6F8E002E00A93ADE1B2E072
:102110000E94024F0E94D454ADE1B2E00E94024FEF
:10212000E6EAF3EB0E9418530E945A528BE0EBE66A
:10213000F8E002E00A93ADE1B2E00E94024F0E9493
:10214000D454ADE1B2E00E940B4F0E94184F87E0DB
:10215000EBE6F8E002E00A93A2E5B2E00E94D45474
:10216000A2E5B2E00E948754A4E0B1E00C9389E0BC
:10217000EBE6F8E002E00A93A2E5B2E00E94D45454
:10218000A2E5B2E00E948754A3E0B1E00C938BE09B
:10219000EBE6F8E002E00A93A2E5B2E00E94D45434
:1021A000A2E5B2E00E948754A2E0B1E00C93EDE119
:1021B000F2E0A6EBB5E00E94C95481E0EBE6F8E05E
:1021C00002E00A93ADE1B2E00E94D454ADE1B2E086
:1021D0000E94024FE8EAF3EB0E9418530E945A5201
:1021E00083E0EBE6F8E002E00A93ADE1B2E00E94A2
:1021F000024F0E94D454ADE1B2E00E94024FE8EADF
:10220000F3EB0E9418530E945A5285E0EBE6F8E087
:1022100002E00A93ADE1B2E00E94024F0E94D45462
:10222000ADE1B2E00E940B4F0E94184F81E0EBE657
:10223000F8E002E00A93A2E5B2E00E94D454A2E5DD
:10224000B2E00E948754A5E0B1E00C9383E0EBE696
:10225000F8E002E00A93A2E5B2E00E94D454A2E5BD
:10226000B2E00E948754A6E0B1E00C9385E0EBE673
:10227000F8E002E00A93A2E5B2E00E94D454A2E59D
:10228000B2E00E948754A7E0B1E00C93EDE1F2E0E8
:10229000ABEAB5E00E94C954EBEAF5E0FA93EA93A1
:1022A000E6EBF5E00E941152A1E2B1E00D931D931F
:1022B0002D933D93E1E2F1E0A0E0BEE30E943554AE
:1022C0000E94094F0E94184FE2E0F1E00E94C851BD
:1022D000A1E2B1E00D931D932D933D93E1E2F1E076
:1022E000A0E0BEE30E9435540E94094F0E94184F9F
:1022F000A2E4B1E0EAEAF3EB0E9418530E945A52BA
:10230000E1E2F1E0A2E4B1E00E940952A2E4B1E00E
:102310000E94024FE4EDF3EB0E9418530E945A52C0
:10232000E1E2F1E0A2E4B1E00E940152E5E0F1E077
:102330000E94EB50AFEEB6E08C930E9476450E946F
:10234000C4450E94EB44E2E0F1E00E94C851ABEECC
:10235000B6E00D931D932D933D93EEE3F0E0ABEECD
:10236000B6E094E07BE70E94ED540C94BA1186E04D
:1023700080930B020C94BF1184E080930B020C94A9
:10238000CE1EE8EDF3EB0E9418530E94305511F079
:102390000C94D91180E080930B02A2E4B1E0E0EE4E
:1023A000F3EB0E9418530E945A520E94EB440C9483
:1023B000CE1EE8EEF3EB0E9418530E94305511F048
:1023C0000C94231280E080930B02E2E0F1E00E9483
:1023D000C851A1E2B1E00D931D932D933D930E944E
:1023E0009A50E1E1F1E0ADE1B2E00E94C954A2E40B
:1023F000B1E0E0EFF3EB0E9418530E945A52EDE176
:10240000F2E0A2E4B1E00E94024F0E94C954A2E4AB
:10241000B1E00E94024FEEEFF3EB0E9418530E94CE
:102420005A520E949A50E8E0F1E0ADE1B2E00E9419
:10243000C954EDE1F2E0A2E4B1E00E94024F0E9433
:10244000C9540C94CE1EEEE0F4EB0E9418530E9487
:10245000305511F00C94611280E080930B02EBEE8A
:10246000F6E0ADE1B2E00E940152A2E4B1E0E6E1A3
:10247000F4EB0E9418530E945A52EDE1F2E0A2E4FC
:10248000B1E00E94024F0E94C954A2E4B1E00E9450
:10249000024FEAE2F4EB0E9418530E945A520E9443
:1024A0009A50E8E0F1E0ADE1B2E00E94C954EDE1FC
:1024B000F2E0A2E4B1E00E94024F0E94C9540C94E1
:1024C000CE1EE2E3F4EB0E9418530E94305511F047
:1024D0000C94911280E080930B0200912908023045
:1024E00011F00C948C12ABE6B8E00E948754A7E37D
:1024F000B1E00C93A2E4B1E0EAE3F4EB0E941853DC
:102500000E945A52E7E3F1E0A2E4B1E00E94024FD8
:102510000E9442540C948F1286E080930B020C941C
:10252000CE1EEEE4F4EB0E9418530E94305511F0D9
:102530000C94AF1280E080930B02A2E4B1E0E6E5D8
:10254000F4EB0E9418530E945A52E7E3F1E0A2E430
:10255000B1E00E94024F0E9442540C94CE1EEEE560
:10256000F4EB0E9418530E94305511F00C94F212B3
:1025700000912908023011F00C94ED12ABE6B8E09E
:102580000E94E456EDE0F0E0A3E3B1E00E94CE54F7
:10259000E3E3F1E0A7EEB6E00E94CE54EAE3F0E018
:1025A000A7EEB6E094E07BE70E94ED5480E08093D4
:1025B0000B02A2E4B1E0E6E6F4EB0E9418530E949D
:1025C0005A52E7EEF6E0A2E4B1E00E94024F0E9408
:1025D0007B550E94AD4F0C94F01284E080930B0267
:1025E0000C94CE1EE0E8F4EB0E9418530E94305584
:1025F00011F00C941D1300912908013011F00C9476
:10260000181380E080930B02A2E4B1E0E8E8F4EB59
:102610000E9418530E945A52E7EEF6E0A2E4B1E09D
:102620000E94024F0E947B550E94AD4F0C941B13D9
:1026300084E080930B020C94CE1EE4E9F4EB0E943C
:1026400018530E94305511F00C944B1380E0809386
:102650000B02A2E4B1E0ECE9F4EB0E9418530E94F3
:102660005A52A0E0BEE3AF93BF93E3EEF6E00E94C0
:102670007B550E94AD4F11E002E0BF91AF910E94E7
:10268000D253E0E0FEE3A2E4B1E00E94024F0E94D8
:10269000C9540C94CE1EE6EBF4EB0E9418530E9432
:1026A000305511F00C94181400912908033011F0E2
:1026B0000C941314ABE6B8E00E948754A0E2B1E09A
:1026C0000C9300912001003080E010F009F081E0CF
:1026D0008F9300912001043081E008F080E09F9109
:1026E0008923882311F40C940E14ECEAF8E0A2E597
:1026F000B2E00E94C954A2E5B2E00E948754A5E26C
:10270000B1E00D931D932D933D93A5E2B1E00D91A2
:102710001D912D913C91A0E2B1E0AD90BB24ADE0C4
:10272000B8E0AA0CBB1CAA0CBB1CAA0DBB1D0D93C8
:102730001D932D933C93E0E2F1E0A190BB24EEE4E5
:10274000F1E0AA0CBB1CAA0CBB1CEA0DFB1DA5E208
:10275000B1E094E07BE70E94ED5480E080930B02AF
:10276000EEEBF4EB0E9418530E94114FE0E2F1E00F
:10277000A0E0BEE30E9442540E94094FE0ECF4EB5B
:102780000E9418530E94114FE0E2F1E0A190BB2497
:10279000EDE0F8E0AA0CBB1CAA0CBB1CEA0DFB1D6B
:1027A000A0E0BEE30E9435540E94094F0E94184FDA
:1027B000E2ECF4EB0E9418530E94114F0E94184F54
:1027C000A2E4B1E0E6ECF4EB0E9418530E945A52E6
:1027D000E0E2F1E0A2E4B1E00E94024F0E94425424
:1027E000A2E4B1E00E94024FE6EAF3EB0E94185324
:1027F0000E945A52E0E2F1E0A190BB24EDE0F8E043
:10280000AA0CBB1CAA0CBB1CEA0DFB1DA2E4B1E088
:102810000E94024F0E9435540C94111483E080935F
:102820000B020C94161484E080930B020C94CE1EC1
:10283000ECEDF4EB0E9418530E94305511F00C940B
:10284000E51400912908033011F00C94E014ABE674
:10285000B8E00E948754A0E2B1E00C9300912001FF
:10286000003080E010F009F081E08F9300912001AA
:10287000043081E008F080E09F918923882311F4DF
:102880000C94DB14ECEAF8E0A2E5B2E00E94C95433
:10289000A2E5B2E00E948754A5E2B1E00D931D933A
:1028A0002D933D93A5E2B1E00D911D912D913C91A9
:1028B000A0E2B1E0AD90BB24A9E1B8E0AA0CBB1C3A
:1028C000AA0CBB1CAA0DBB1D0D931D932D933C930D
:1028D000E0E2F1E0A190BB24EAE5F1E0AA0CBB1C28
:1028E000AA0CBB1CEA0DFB1DA5E2B1E094E07BE75E
:1028F0000E94ED5480E080930B02EEEBF4EB0E941B
:1029000018530E94114FE0E2F1E0A0E0BEE30E9404
:1029100042540E94094FE0ECF4EB0E9418530E94CD
:10292000114FE0E2F1E0A190BB24E9E1F8E0AA0C4C
:10293000BB1CAA0CBB1CEA0DFB1DA0E0BEE30E9461
:1029400035540E94094F0E94184FE2ECF4EB0E94AC
:1029500018530E94114F0E94184FA2E4B1E0E6EC18
:10296000F4EB0E9418530E945A52E0E2F1E0A2E414
:10297000B1E00E94024F0E944254A2E4B1E00E94E2
:10298000024FE6EAF3EB0E9418530E945A52E0E22B
:10299000F1E0A190BB24E9E1F8E0AA0CBB1CAA0C71
:1029A000BB1CEA0DFB1DA2E4B1E00E94024F0E9495
:1029B00035540C94DE1483E080930B020C94E314E2
:1029C00084E080930B020C94CE1EE4EEF4EB0E94A4
:1029D00018530E94305511F00C948015009129086D
:1029E000023011F00C947B15ABE6B8E00E948754DE
:1029F000A0E2B1E00C9300912001003080E010F0E3
:102A000009F081E08F9300912001043081E008F00B
:102A100080E09F918923882311F40C947615ECEAC9
:102A2000F8E0A2E5B2E00E94C954A2E4B1E0ECEE05
:102A3000F4EB0E9418530E945A52E0E2F1E0A2E443
:102A4000B1E00E94024F0E944254A2E4B1E00E9411
:102A5000024FE6EAF3EB0E9418530E945A52E0E25A
:102A6000F1E0A190BB24EDE0F8E0AA0CBB1CAA0C9D
:102A7000BB1CEA0DFB1DA2E4B1E00E94024F0E94C4
:102A8000355480E080930B02EEEBF4EB0E94185378
:102A90000E94114FE0E2F1E0A0E0BEE30E94425448
:102AA0000E94094FE0ECF4EB0E9418530E94114F72
:102AB000E0E2F1E0A190BB24EDE0F8E0AA0CBB1C41
:102AC000AA0CBB1CEA0DFB1DA0E0BEE30E9435541E
:102AD0000E94094F0E94184FE2ECF4EB0E94185339
:102AE0000E94114F0E94184F0C94791583E0809337
:102AF0000B020C947E1584E080930B020C94CE1E86
:102B0000E4EFF4EB0E9418530E94305511F00C943E
:102B10001B1600912908023011F00C941616ABE632
:102B2000B8E00E948754A0E2B1E00C93009120012C
:102B3000003080E010F009F081E08F9300912001D7
:102B4000043081E008F080E09F918923882311F40C
:102B50000C941116ECEAF8E0A2E5B2E00E94C95428
:102B6000A2E4B1E0ECEFF4EB0E9418530E945A5239
:102B7000E0E2F1E0A2E4B1E00E94024F0E94425480
:102B8000A2E4B1E00E94024FE6EAF3EB0E94185380
:102B90000E945A52E0E2F1E0A190BB24E9E1F8E0A2
:102BA000AA0CBB1CAA0CBB1CEA0DFB1DA2E4B1E0E5
:102BB0000E94024F0E94355480E080930B02EEEB9E
:102BC000F4EB0E9418530E94114FE0E2F1E0A0E004
:102BD000BEE30E9442540E94094FE0ECF4EB0E94D5
:102BE00018530E94114FE0E2F1E0A190BB24E9E10B
:102BF000F8E0AA0CBB1CAA0CBB1CEA0DFB1DA0E054
:102C0000BEE30E9435540E94094F0E94184FE2EC27
:102C1000F4EB0E9418530E94114F0E94184F0C941D
:102C2000141683E080930B020C94191684E08093B1
:102C30000B020C94CE1EE8E0F5EB0E9418530E94A4
:102C4000305511F00C94881600912908023011F0CB
:102C50000C948316ABE6B8E00E948754A0E2B1E082
:102C60000C9300912001003080E010F009F081E029
:102C70008F9300912001043081E008F080E09F9163
:102C80008923882311F40C947E1680E080930B0234
:102C90000091200141E0041BAAE1B1E00C93809176
:102CA0001A01ABE8B2E00E9403530E94F9529C91D2
:102CB000982B9C93A2E4B1E0E0E1F5EB0E9418535D
:102CC0000E945A52E0E2F1E0A2E4B1E00E94024F19
:102CD0000E944254A2E4B1E00E94024FE0ECF4EB07
:102CE0000E9418530E945A52A2E4B1E00E94024F7F
:102CF000EBE8F2E00E94B6540C94811683E08093D6
:102D00000B020C94861684E080930B020C94CE1E6A
:102D1000E4E2F5EB0E9418530E94305511F00C9438
:102D2000C01600912908023011F00C94BB16ABE6D6
:102D3000B8E00E948754A7EDB6E00D931C93E6E33C
:102D4000F0E0A7EDB6E07BE70E94EC5480E08093D2
:102D50000B02A2E4B1E0ECE2F5EB0E9418530E94F2
:102D60005A52E7EDF6E0A2E4B1E00E94024F0E9461
:102D700032540C94BE1684E080930B020C94CE1E49
:102D8000ECE4F5EB0E9418530E94305511F00C94BE
:102D9000F31600912908013011F00C94EE1680E032
:102DA00080930B02A2E4B1E0E4E5F5EB0E94185336
:102DB0000E945A52E7EDF6E0A2E4B1E00E94024F11
:102DC0000E943254A2E4B1E00E94024FE4E2F0EB30
:102DD0000E9418530E945A520C94F11684E080937A
:102DE0000B020C94CE1EE8E6F5EB0E9418530E94ED
:102DF000305511F00C942B1700912908023011F076
:102E00000C942617ABE6B8E00E948754A9EDB6E013
:102E10000D931C93E8E3F0E0A9EDB6E07BE70E9498
:102E2000EC5480E080930B02A2E4B1E0E0E7F5EB24
:102E30000E9418530E945A52E9EDF6E0A2E4B1E074
:102E40000E94024F0E9432540C94291784E0809310
:102E50000B020C94CE1EE4E9F5EB0E9418530E947D
:102E6000305511F00C945E1700912908013011F0D3
:102E70000C94591780E080930B02A2E4B1E0ECE9D6
:102E8000F5EB0E9418530E945A52E9EDF6E0A2E4D5
:102E9000B1E00E94024F0E943254A2E4B1E00E94CD
:102EA000024FE4E2F0EB0E9418530E945A520C9435
:102EB0005C1784E080930B020C94CE1EE2EBF5EBE2
:102EC0000E9418530E94305511F00C94EC1780E0CA
:102ED00080930B02A2E4B1E0EAEBF5EB0E941853F9
:102EE0000E945A5200274427A3E2B0E08C9180FB55
:102EF00000F9A8EFB6E08C9180FB40F9042700FBB5
:102F0000ABEDB6E08C9185F98C93ABEDB6E08C918E
:102F100085FB16F40C949817A2E4B1E00E94024FCE
:102F2000E0EDF5EB0E9418530E945A520C94A21740
:102F3000A2E4B1E00E94024FECEDF5EB0E941853C1
:102F40000E945A5200274427A3E2B0E08C9181FBF3
:102F500000F9A8EFB6E08C9181FB40F9042700FB53
:102F6000ABEDB6E08C9185F98C93ABEDB6E08C912E
:102F700085FB16F40C94C817A2E4B1E00E94024F3E
:102F8000E6EEF5EB0E9418530E945A520C94D217A9
:102F9000A2E4B1E00E94024FE6EFF5EB0E94185365
:102FA0000E945A52A0E0BEE3AF93BF93E3EEF6E077
:102FB0000E947B550E94AD4F11E002E0BF91AF919E
:102FC0000E94D253E0E0FEE3A2E4B1E00E94024F8F
:102FD0000E94C9540C94CE1EE6E0F6EB0E941853F2
:102FE0000E94305511F00C94A01880E080930B02E1
:102FF00000274427A3E2B0E08C9180FB00F9A8EF02
:10300000B6E08C9180FB40F9042700FBABEDB6E005
:103010008C9185F98C93A2E4B1E0EEE0F6EB0E948E
:1030200018530E945A52ABEDB6E08C9185FBA2E496
:10303000B1E00E94024F0E9409538D9388278C9320
:1030400000274427A3E2B0E08C9181FB00F9A8EFB0
:10305000B6E08C9181FB40F9042700FBABEDB6E0B4
:103060008C9185F98C93A2E4B1E00E94024FE6E2D4
:10307000F6EB0E9418530E945A52ABEDB6E08C91C9
:1030800085FBA2E4B1E00E94024F0E9409538D9398
:1030900088278C9300274427A0E2B0E08C9180FB26
:1030A00000F9A8EFB6E08C9182FB40F9042700FB01
:1030B000ABEDB6E08C9185F98C93A2E4B1E00E946F
:1030C000024FEEE2F6EB0E9418530E945A52ABED0B
:1030D000B6E08C9185FBA2E4B1E00E94024F0E9411
:1030E00009538D9388278C9300274427A0E2B0E0F2
:1030F0008C9181FB00F9A8EFB6E08C9183FB40F93D
:10310000042700FBABEDB6E08C9185F98C93A2E42B
:10311000B1E00E94024FE6E3F6EB0E9418530E94D2
:103120005A52ABEDB6E08C9185FBA2E4B1E00E946F
:10313000024F0E9409538D9388278C930C94CE1EC6
:10314000EEE3F6EB0E9418530E94305511F00C94F8
:10315000C41A00912908053011F00C94BF1AABE68F
:10316000B8E00E948754AAE1B1E00C93ACEAB8E061
:103170000E948754ABE1B1E00C93ADEEB8E00E9441
:103180008754ACE1B1E00C9300911A01013011F0C9
:103190000C94A11A00911B01003080E010F009F09E
:1031A00081E08F9300911B01033081E008F080E003
:1031B0009F918923882311F40C94941A00911C0187
:1031C000013011F00C944019EEE2F9E0ABE1B1E00E
:1031D0000D91112747E050E00E942D52A2EFB6E07A
:1031E000A00FB11F0E94C954EBE1F1E0019111273A
:1031F00041E050E00E942D52EAE4F0E0E00FF11FC0
:10320000ABE1B1E00D91112747E050E00E942D5253
:10321000A2EFB6E0A00FB11F7BE70E94FB5480E055
:1032200080930B02A2E4B1E0E6E4F6EB0E941853AF
:103230000E945A52EBE1F1E0A2E4B1E00E94024F99
:103240000E944254A2E4B1E00E94024FE0E5F1EB9B
:103250000E9418530E945A52EBE1F1E001911127AC
:1032600047E050E00E942D52E2EFF6E0E00FF11F40
:10327000A2E4B1E00E94024F0E94C9540C94921A39
:10328000023011F00C94BF19AEE2B9E00E948754ED
:10329000AEE1B1E00C9300911E01023010F00C94ED
:1032A000B21900911B0141E0041BA0E2B1E00C93B4
:1032B00000911E01003011F00C946B1980912001D7
:1032C000A8EFB6E00E9403530E94F9528C91892323
:1032D0008C930C94761980912001A8EFB6E00E949F
:1032E00003530E94F9529C91982B9C93EAE4F0E0DE
:1032F000A8EFB6E07BE70E94EA5480E080930B02DF
:10330000A2E4B1E0EAE5F6EB0E9418530E945A529B
:10331000EBE1F1E0A2E4B1E00E94024F0E944254CE
:10332000A2E4B1E00E94024FE0E5F1EB0E941853E5
:103330000E945A5280912001A8EFB6E00E940353E8
:103340000E94F9520C900822689409F4E894A2E4CF
:10335000B1E00E94024F0E9409538D9388278C93FD
:103360000C94BD1980E080930B02A2E4B1E0E0E68A
:10337000F6EB0E9418530E945A520C94921A033092
:1033800011F00C94231AAEE2B9E00E948754ABE12D
:10339000B1E0AD90BB24AEEEB6E0AA0CBB1CAA0D0A
:1033A000BB1D0D931C93EBE1F1E0A190BB24E0E485
:1033B000F0E0AA0CBB1CEA0DFB1DABE1B1E0AD9047
:1033C000BB24AEEEB6E0AA0CBB1CAA0DBB1D7BE76E
:1033D0000E94EC5480E080930B02A2E4B1E0EEE79F
:1033E000F6EB0E9418530E945A52EBE1F1E0A2E47E
:1033F000B1E00E94024F0E944254A2E4B1E00E9458
:10340000024FE0E5F1EB0E9418530E945A52EBE1A3
:10341000F1E0A190BB24EEEEF6E0AA0CBB1CEA0D95
:10342000FB1DA2E4B1E00E94024F0E943254A2E4CC
:10343000B1E00E94024FEAE9F6EB0E9418530E94A5
:103440005A520C94921A043011F00C94871AAEE27E
:10345000B9E00E948754ABE1B1E0AD90BB24A2EF8C
:10346000B6E0AA0CBB1CAA0DBB1D0D931C93EBE18F
:10347000F1E0A190BB24E4E4F0E0AA0CBB1CEA0D4F
:10348000FB1DABE1B1E0AD90BB24A2EFB6E0AA0C0E
:10349000BB1CAA0DBB1D7BE70E94EC5480E080930F
:1034A0000B02A2E4B1E0E2EAF6EB0E9418530E949C
:1034B0005A52EBE1F1E0A2E4B1E00E94024F0E9417
:1034C0004254A2E4B1E00E94024FE0E5F1EB0E9419
:1034D00018530E945A52EBE1F1E0A190BB24E2EFB5
:1034E000F6E0AA0CBB1CEA0DFB1DA2E4B1E00E94B1
:1034F000024F0E943254A2E4B1E00E94024FEAE976
:10350000F6EB0E9418530E945A520C94921A80E0D3
:1035100080930B02A2E4B1E0EEEBF6EB0E941853AD
:103520000E945A520C949F1A80E080930B02A2E4EE
:10353000B1E0E6EDF6EB0E9418530E945A520C944B
:10354000BD1A023011F00C94B21A80E080930B0285
:10355000A2E4B1E0E8EEF6EB0E9418530E945A5242
:103560000C94BD1A80E080930B02A2E4B1E0E2E08B
:10357000F7EB0E9418530E945A520C94C21A84E02E
:1035800080930B020C94CE1EEEE1F7EB0E941853D1
:103590000E94305511F00C94B41B0091290803309F
:1035A00011F00C94AF1BABE6B8E00E948754AAE17F
:1035B000B1E00C93ACEAB8E00E948754ABE1B1E013
:1035C0000C9300911A01013011F00C949E1B80E0C5
:1035D00080930B0200911B01003080E010F009F095
:1035E00081E08F9300911B01033081E008F080E0BF
:1035F0009F918923882311F40C94911B00911B0146
:1036000041E0041BA0E2B1E00C93A2E4B1E0E6E2E9
:10361000F7EB0E9418530E945A52EBE1F1E0A2E44A
:10362000B1E00E94024F0E944254A2E4B1E00E9425
:10363000024FEAE2F7EB0E9418530E945A52EBE164
:10364000F1E00191112747E050E00E942D52E2EF96
:10365000F6E0E00FF11FA2E4B1E00E94024F0E94E9
:10366000C954A2E4B1E00E94024FE4E3F7EB0E94E8
:1036700018530E945A5280912001A8EFB6E00E9490
:1036800003530E94F9520C900822689409F4E894BC
:10369000A2E4B1E00E94024F0E9409538D93882753
:1036A0008C93A2E4B1E00E94024FEAE3F7EB0E94A0
:1036B00018530E945A52EBE1F1E0A190BB24EEEEC8
:1036C000F6E0AA0CBB1CEA0DFB1DA2E4B1E00E94CF
:1036D000024F0E943254A2E4B1E00E94024FE2E4A1
:1036E000F7EB0E9418530E945A52EBE1F1E0A190CF
:1036F000BB24E2EFF6E0AA0CBB1CEA0DFB1DA2E422
:10370000B1E00E94024F0E943254A2E4B1E00E9454
:10371000024FE2E5F7EB0E9418530E945A520C94B4
:103720009C1B80E080930B02A2E4B1E0E6EDF6EB97
:103730000E9418530E945A520C94AD1B023011F093
:103740000C94AD1B80E080930B02A2E4B1E0E8EEA4
:10375000F6EB0E9418530E945A520C94B21B84E05C
:1037600080930B020C94CE1EEAE5F7EB0E941853EF
:103770000E94305511F00C94F61B0091290802307C
:1037800011F00C94F11B80E080930B02ABE6B8E0E3
:103790000E948754AAE1B1E00C9300911A01003015
:1037A00011F00C94E21B70912F03706870932F033B
:1037B000A2E4B1E0E2E6F7EB0E9418530E945A52ED
:1037C0000C94EF1B7091AC0270687093AC02A2E491
:1037D000B1E0EEE6F7EB0E9418530E945A520C94A7
:1037E000F41B84E080930B020C94CE1EEAE7F7EB07
:1037F0000E9418530E94305511F00C94111C80E067
:1038000080930B02A2E4B1E0E2E8F7EB0E941853C8
:103810000E945A52709138017068709338010C946C
:10382000CE1EE6E9F7EB0E9418530E94305511F0C6
:103830000C942C1C80E080930B02A2E4B1E0EEE932
:10384000F7EB0E9418530E945A527091DB06706881
:103850007093DB060C94CE1EE4EBF7EB0E9418533A
:103860000E94305511F00C94C81C009129080330B7
:1038700011F00C94C31CABE6B8E00E948754AAE197
:10388000B1E00C9300911A01003080E010F009F0D3
:1038900081E08F9300911A01033081E008F080E00D
:1038A0009F918923882311F40C94BE1C80E080939F
:1038B0000B0200911A0141E0041BACE1B1E00C9352
:1038C000ACEAB8E00E948754ABE1B1E00C93009100
:1038D0001B01003011F00C947A1C80911C01A0E1B6
:1038E000B8E00E9403530E94F9528C9189238C9373
:1038F0000C94851C80911C01A0E1B8E00E94035348
:103900000E94F9529C91982B9C93E1E5F1E0A0E193
:10391000B8E07BE70E94EA54A2E4B1E0ECEBF7EBFD
:103920000E9418530E945A52EAE1F1E0A2E4B1E089
:103930000E94024F0E944254A2E4B1E00E94024F52
:10394000E0E5F1EB0E9418530E945A5280911C014D
:10395000A0E1B8E00E9403530E94F9520C900822A3
:10396000689409F4E894A2E4B1E00E94024F0E9436
:1039700009538D9388278C930C94C11C85E0809308
:103980000B020C94C61C84E080930B020C94CE1E98
:10399000E0EDF7EB0E9418530E94305511F00C94A3
:1039A000511D00912908013011F00C94EC1C80E0AD
:1039B00080930B02A2E4B1E0E8EDF7EB0E9418530C
:1039C0000E945A52A2E4B1E00E94024FE0E1F8E006
:1039D0000E94B6540C944F1D023011F00C944C1DF3
:1039E000ABE6B8E00E948754AAE1B1E00C930091E5
:1039F0001A01003080E010F009F081E08F9300910F
:103A00001A01033081E008F080E09F918923882328
:103A100011F40C94471D00911A0141E0041BACE124
:103A2000B1E00C9380E080930B02A2E4B1E0E0EE01
:103A3000F7EB0E9418530E945A52EAE1F1E0A2E427
:103A4000B1E00E94024F0E944254A2E4B1E00E9401
:103A5000024FE0E5F1EB0E9418530E945A52809108
:103A60001C01A0E1B8E00E9403530E94F9520C909F
:103A70000822689409F4E894A2E4B1E00E94024F9D
:103A80000E9409538D9388278C930C944A1D85E0DE
:103A900080930B020C944F1D84E080930B020C94D6
:103AA000CE1EE8EEF7EB0E9418530E94305511F03D
:103AB0000C94ED1D00912908033011F00C94E81DC1
:103AC000ABE6B8E00E948754AAE1B1E00C93009104
:103AD0001A01003080E010F009F081E08F9300912E
:103AE0001A01033081E008F080E09F918923882348
:103AF00011F40C94E31D80E080930B0200911A01F5
:103B000041E0041BACE1B1E00C93ACEAB8E00E94E8
:103B10008754ABE1B1E00C9300911B01003011F030
:103B20000C949F1D80911C01A8EFB6E00E940353E6
:103B30000E94F9528C9189238C930C94AA1D809138
:103B40001C01A8EFB6E00E9403530E94F9529C9119
:103B5000982B9C93EAE4F0E0A8EFB6E07BE70E94A4
:103B6000EA54A2E4B1E0E0EFF7EB0E9418530E94A0
:103B70005A52EAE1F1E0A2E4B1E00E94024F0E9451
:103B80004254A2E4B1E00E94024FE0E5F1EB0E9452
:103B900018530E945A5280911C01A8EFB6E00E946F
:103BA00003530E94F9520C900822689409F4E89497
:103BB000A2E4B1E00E94024F0E9409538D9388272E
:103BC0008C930C94E61D85E080930B020C94EB1D06
:103BD00084E080930B020C94CE1EE4E0F8EB0E948C
:103BE00018530E94305511F00C94761E009129084C
:103BF000013011F00C94111E80E080930B02A2E4BE
:103C0000B1E0ECE0F8EB0E9418530E945A52A2E493
:103C1000B1E00E94024FE8EFF6E00E94B6540C9427
:103C2000741E023011F00C94711EABE6B8E00E94D5
:103C30008754AAE1B1E00C9300911A01003080E0B2
:103C400010F009F081E08F9300911A01033081E0B8
:103C500008F080E09F918923882311F40C946C1E56
:103C600000911A0141E0041BACE1B1E00C9380E04B
:103C700080930B02A2E4B1E0E4E1F8EB0E94185358
:103C80000E945A52EAE1F1E0A2E4B1E00E94024F40
:103C90000E944254A2E4B1E00E94024FE0E5F1EB41
:103CA0000E9418530E945A5280911C01A8EFB6E05E
:103CB0000E9403530E94F9520C900822689409F460
:103CC000E894A2E4B1E00E94024F0E9409538D9350
:103CD00088278C930C946F1E85E080930B020C94C4
:103CE000741E84E080930B020C94CE1EECE1F8EB82
:103CF0000E9418530E94305511F00C94AD1E009193
:103D00002908023011F00C94A81E80E080930B0269
:103D1000ABE6B8E00E948754AFE5BBE10C93ECEE54
:103D2000F1E0AFE5BBE17BE70E94EA54A2E4B1E039
:103D3000E4E2F8EB0E9418530E945A52EFE5FBE1CF
:103D4000A2E4B1E00E94024F0E9442540C94AB1EC8
:103D500084E080930B020C94CE1EE6E3F8EB0E9405
:103D600018530E94305511F00C94CB1E80E08093C4
:103D70000B02A2E4B1E0E0EDF1EB0E9418530E94C7
:103D80005A52EFE5FBE1A2E4B1E00E94024F0E942B
:103D900042540C94CE1E81E080930B020C94D31EEF
:103DA00082E080930B0200910B02003018F011F0BA
:103DB0000C94DC1E0C94EA1EE2EFF4E90E94185306
:103DC000ABE0B2E08C9199270E94E552A2E4B1E009
:103DD0000E945A52A2E4B1E00E940B4F0E94184F79
:103DE000089584E080937D02EEE3F8EB0E9418537F
:103DF0000E94114F0E94184F84E690E0D2018D93EB
:103E00009C9382E00E9427520E94542E229682E0C8
:103E10000E942352EAE4F8EB0E9418530E94114FCB
:103E20000E94184FA9EDB6E00E94BB4EE8E3F0E017
:103E3000A9EDB6E07BE70E94EC54059B0C942F1F84
:103E4000EAE5F8EB0E9418530E94114F0E94184FA8
:103E50007091AC0270647093AC020C94B71FAAE12D
:103E6000B1E08C918F5F8C93E2E6F8EB0E941853DF
:103E70000E94114FEAE1F1E0A0E0BEE30E9442544B
:103E80000E94094FE8E7F8EB0E9418530E94114F77
:103E9000EEE7F8EB0E9418530E94114F0E94184F52
:103EA000E0E8F8EB0E9418530E94114F0E94184F4F
:103EB000ECE8F8EB0E9418530E94114F0E94184F33
:103EC0002B9AA89584E690E0D2018D939C9382E092
:103ED0000E9427520E94542E229682E00E94235272
:103EE0002B988CE291E0D2018D939C9382E00E940A
:103EF00027520E94542E229682E00E94235285E08F
:103F00008093890280E080938A02709188027F7B8F
:103F10007093880270918802706270938802A895ED
:103F2000A0E2B0E00C9105FB81E00EF080E08F9301
:103F3000A8E8B2E08C9186FB81E00EF080E09F91D2
:103F4000892B882311F40C948F1F059B0C94AF1FB1
:103F50007091AC0270647093AC020C94B71FE4E9EA
:103F6000F8EB0E9418530E94114F0E94184FA89519
:103F7000ACEAB2E08C9186FB81E00EF080E08F939A
:103F800000911A01053081E009F080E09F91892BB2
:103F9000882311F40C941D1FACEAB2E08C9186FBCF
:103FA00016F00C945D24A89584E690E0D2018D93E0
:103FB0009C9382E00E9427520E94542E229682E017
:103FC0000E94235280E080931C0180E08093C20213
:103FD00080E08093C302EEE9F8EB0E9418530E9440
:103FE000114F0E94184FD201E2EAF8EB0E941853D9
:103FF0000E945A5285E60E9427528AE090E0D20140
:104000008D939C9382E00E9427520E94C2252496A1
:1040100087E60E942352E6E3F2EB0E9418530E94C7
:10402000114FA6EFBDE10E940B4F0E94184FEAE32B
:10403000F2EB0E9418530E94114FA6EFBEE10E94BE
:104040000B4F0E94184FEEE3F2EB0E9418530E94B0
:10405000114FA6EFBFE10E940B4F0E94184FE2E400
:10406000F2EB0E9418530E94114FA6EFBCE10E9490
:104070000B4F0E94184F84E690E0D2018D939C93E1
:1040800082E00E9427520E94542E229682E00E94D3
:104090002352A2ECB2E08C918F5F8C93A6EFBEE12D
:1040A000E6E2F0EB0E9418530E94305581E009F0DF
:1040B00080E08F93A6EFBFE1E6E2F0EB0E94185399
:1040C0000E94305581E009F080E09F91892B8F9309
:1040D000A6EFBCE1E6E2F0EB0E9418530E943055D7
:1040E00081E009F080E09F91892B8F93A0E2B0E0FE
:1040F0000C9105FB81E00EF480E09F91892B8F935A
:104100000091C202053081E009F080E09F91892B87
:10411000882311F40C94F31FA6EFBEE1E6E2F0EB66
:104120000E9418530E94305581E009F080E08F937F
:10413000A6EFBFE1E6E2F0EB0E9418530E94305573
:1041400081E009F080E09F91892B8F93A6EFBCE17D
:10415000E6E2F0EB0E9418530E94305581E009F02E
:1041600080E09F91892B882311F40C94CC2380E06C
:1041700080931A01E6EAF8EB0E9418530E94114F4F
:104180000E94184FAAE1B1E08C918F5F8C93ECEA0A
:10419000F8EB0E9418530E94114FEAE1F1E0A0E011
:1041A000BEE30E9442540E94094FE8E7F8EB0E94E8
:1041B00018530E94114FEEEBF8EB0E9418530E9427
:1041C000114F0E94184FD201E2ECF8EB0E941853F5
:1041D0000E945A5285E60E9427528AE090E0D2015E
:1041E0008D939C9382E00E9427520E94C2252496C0
:1041F00087E60E942352E6E3F2EB0E9418530E94E6
:10420000114FA6EFBDE10E940B4F0E94184FEAE349
:10421000F2EB0E9418530E94114FA6EFBEE10E94DC
:104220000B4F0E94184FEEE3F2EB0E9418530E94CE
:10423000114FA6EFBFE10E940B4F0E94184FE2E41E
:10424000F2EB0E9418530E94114FA6EFBCE10E94AE
:104250000B4F0E94184F84E690E0D2018D939C93FF
:1042600082E00E9427520E94542E229682E00E94F1
:104270002352A6EFBEE1ECECF8EB0E9418530E942B
:10428000305581E009F080E08F93A6EFBFE1ECECC0
:10429000F8EB0E9418530E94305581E009F080E04D
:1042A0009F91892B8F93A6EFBCE1ECECF8EB0E9479
:1042B00018530E94305581E009F080E09F91892BCE
:1042C0008F9300911A010F3081E009F080E09F91F7
:1042D000892B882311F40C94C220A6EFBEE1ECECEC
:1042E000F8EB0E9418530E94305581E009F080E0FD
:1042F0008F93A6EFBFE1ECECF8EB0E9418530E94FD
:10430000305581E009F080E09F91892B8F93A6EFD3
:10431000BCE1ECECF8EB0E9418530E94305581E0B0
:1043200009F080E09F91892B882311F40C94CA2313
:1043300080E080931A01E6EFF3E90E941853AAE1A6
:10434000B1E08C9199270E94E552ADE1B2E00E9464
:104350005A52ADE1B2E00E940B4F0E94184FE8E6BE
:10436000F4E90E941853AAE1B1E08C9199270E94C8
:10437000E552ADE1B2E00E945A52EDE1F2E0A2E472
:10438000B1E00E94C954ADE1B2E088278C9300915E
:104390001A01033011F00C94DA21E0E0F0E0A6E518
:1043A000B2E090E20E941055E6E5F2E0ADE1B2E045
:1043B0000E94C954EDE1F2E0A2E4B1E00E94024F94
:1043C0000E94C954E8EEF4E90E941853AAE1B1E052
:1043D0008C9199270E94E552ADE1B2E00E945A52B9
:1043E000EDE1F2E0A2E4B1E00E94024F0E94C95464
:1043F00080E08093C202E2E4F1E0D2010E94C9545D
:1044000085E60E9427528AE090E0D2018D939C932A
:1044100082E00E9427520E94C225249687E60E94CD
:104420002352E6E3F2EB0E9418530E94114FA6EFCD
:10443000BDE10E940B4F0E94184FEAE3F2EB0E948D
:1044400018530E94114FA6EFBEE10E940B4F0E942D
:10445000184FEEE3F2EB0E9418530E94114FA6EFA3
:10446000BFE10E940B4F0E94184FE2E4F2EB0E9462
:1044700018530E94114FA6EFBCE10E940B4F0E94FF
:10448000184F84E690E0D2018D939C9382E00E94C5
:1044900027520E94542E229682E00E942352A2ECC0
:1044A000B2E08C918F5F8C93A6EFBEE1E6E2F0EB79
:1044B0000E9418530E94305581E009F080E08F93EC
:1044C000A6EFBFE1E6E2F0EB0E9418530E943055E0
:1044D00081E009F080E09F91892B8F93A6EFBCE1EA
:1044E000E6E2F0EB0E9418530E94305581E009F09B
:1044F00080E09F91892B8F93A0E2B0E00C9105FBA7
:1045000081E00EF480E09F91892B8F930091C2028D
:104510000A3081E009F080E09F91892B882311F413
:104520000C94FB210091C2020A3011F00C94AD22D0
:1045300082E08093C302EAEDF8EB0E9418530E94D8
:10454000114FA2E4B1E00E940B4FE4E2F0EB0E94B5
:1045500018530E94114F0E94184FAAE1B1E08C91AC
:104560008F5F8C9300911A01093081E009F080E09F
:104570008F930091C302023081E009F080E09F91A7
:10458000892B882311F40C949B21E6EEF8EB0E9412
:1045900018530E94114F0E94184FD201E4E0F9EB2A
:1045A0000E9418530E945A5285E60E94275284E6C0
:1045B00090E0D2018D939C9382E00E9427520E944A
:1045C000C225249687E60E942352E6E3F2EB0E947E
:1045D00018530E94114FA6EFBDE10E940B4F0E949D
:1045E000184FEAE3F2EB0E9418530E94114FA6EF16
:1045F000BEE10E940B4F0E94184FEEE3F2EB0E94C7
:1046000018530E94114FA6EFBFE10E940B4F0E946A
:10461000184FE2E4F2EB0E9418530E94114FA6EFEC
:10462000BCE10E940B4F0E94184FE0E1F9EB0E94A1
:1046300018530E94114F0E94184FE0E0F0E0A6E5E9
:10464000B2E090E20E941055ADE1B2E0E2E2F9EB97
:104650000E9418530E945A5282E2ADE1B2E00E94D9
:10466000024F8D9388278C93E6E5F2E0ADE1B2E04E
:104670000E94024F0E94C95482E2ADE1B2E00E9462
:10468000024F8D9388278C93ADE1B2E00E94024FD8
:10469000E0ECF4EB0E9418530E945A5282E2ADE122
:1046A000B2E00E94024F8D9388278C9382E2ADE1A5
:1046B000B2E00E94024F8D9388278C93ADE1B2E067
:1046C0000E94024FE0ECF4EB0E9418530E945A52F1
:1046D00082E2ADE1B2E00E94024F8D9388278C9375
:1046E00082E2ADE1B2E00E94024F8D9388278C9365
:1046F000EDE1F2E0D2010E94C95485E60E94275202
:1047000084EF91E0D2018D939C9382E00E94275226
:104710000E94C225249687E60E942352E6E3F2EB2C
:104720000E9418530E94114FA6EFBDE10E940B4F4B
:104730000E94184FEAE3F2EB0E9418530E94114FB7
:10474000A6EFBEE10E940B4F0E94184FEEE3F2EB82
:104750000E9418530E94114FA6EFBFE10E940B4F19
:104760000E94184FE2E4F2EB0E9418530E94114F8E
:10477000A6EFBCE10E940B4F0E94184F81E080938E
:104780007D0200911A01093011F00C94CA2381E0D6
:1047900080931C010C945524EAE5F8EB0E94185311
:1047A0000E94114F0E94184F2B9AA89584E690E022
:1047B000D2018D939C9382E00E9427520E94542E36
:1047C000229682E00E9423522B988CE291E0D20143
:1047D0008D939C9382E00E9427520E94542E229631
:1047E00082E00E942352ECE2F9EB0E9418530E94EF
:1047F000114F0E94184F80E080931A0184E690E0E8
:10480000D2018D939C9382E00E9427520E94542EE5
:10481000229682E00E942352AAE1B1E08C918F5F40
:104820008C93E6E3F2EB0E9418530E94114FA6EF1F
:10483000BDE10E940B4F0E94184FEAE3F2EB0E9489
:1048400018530E94114FA6EFBEE10E940B4F0E9429
:10485000184FEEE3F2EB0E9418530E94114FA6EF9F
:10486000BFE10E940B4F0E94184FE2E4F2EB0E945E
:1048700018530E94114FA6EFBCE10E940B4F0E94FB
:10488000184FACEAB2E08C9185FB81E00EF080E03D
:104890008F9300911A01043081E009F080E09F912C
:1048A000892B882311F40C94FE2300911C01013004
:1048B00011F00C94E51F0C94602481E08093C302F6
:1048C00000911C01013011F00C941D1FE8E3F9EB7D
:1048D0000E9418530E94114F0E94184F84E690E0E6
:1048E000D2018D939C9382E00E9427520E94542E05
:1048F000229682E00E942352ADE1B2E0E0E4F9EBBF
:104900000E9418530E945A52EDE1F2E0D2010E9437
:10491000C95485E60E9427528AE090E0D2018D9327
:104920009C9382E00E9427520E94C225249687E62B
:104930000E942352E6E3F2EB0E9418530E94114FAB
:10494000A6EFBDE10E940B4F0E94184FEAE3F2EB85
:104950000E9418530E94114FA6EFBEE10E940B4F18
:104960000E94184FEEE3F2EB0E9418530E94114F81
:10497000A6EFBFE10E940B4F0E94184FE2E4F2EB5A
:104980000E9418530E94114FA6EFBCE10E940B4FEA
:104990000E94184F82E0809320010091200108308E
:1049A00018F011F00C94C125709188027F7B7093F0
:1049B000880280E080938A028FE080938902709160
:1049C000880270627093880280E080931C01ADE1E0
:1049D000B2E0EAE4F9EB0E9418530E945A52E0E276
:1049E000F1E0ADE1B2E00E94024F0E944254EDE1DD
:1049F000F2E0D2010E94C95485E60E9427528AE063
:104A000090E0D2018D939C9382E00E9427520E94F5
:104A1000C225249687E60E942352E6E3F2EB0E9429
:104A200018530E94114FA6EFBDE10E940B4F0E9448
:104A3000184FEAE3F2EB0E9418530E94114FA6EFC1
:104A4000BEE10E940B4F0E94184FEEE3F2EB0E9472
:104A500018530E94114FA6EFBFE10E940B4F0E9416
:104A6000184FE2E4F2EB0E9418530E94114FA6EF98
:104A7000BCE10E940B4F0E94184F81E091E00E9420
:104A8000285281E0E6EFFDE108E00A93A981BA81AE
:104A90000E94D454A881B981EAE4F9EB0E9418532A
:104AA0000E9430550FB681E0481A81E0580A2296DC
:104AB0000FBE81E009F080E08F93A6EFBEE1E6E251
:104AC000F0EB0E9418530E94305581E009F080E01D
:104AD0009F918923882311F40C94712581E08093A0
:104AE0001C0181E091E00E94285281E0E6EFFDE1A7
:104AF00008E00A93A981BA810E94D454A881B9819F
:104B0000EAE4F9EB0E9418530E9430550FB681E099
:104B1000481A81E0580A22960FBE81E009F080E031
:104B20008F93A6EFBEE1E0EBF0EB0E9418530E94DA
:104B3000305581E009F080E09F918923882311F4AA
:104B40000C94A52581E080931C0100911C0101308B
:104B500081E009F080E08F93A8E8B2E08C9186FBB9
:104B600081E00EF080E09F91892B882311F40C9452
:104B7000E724A0E2B1E08C918F5F8C9310F40C9449
:104B8000CD240895A6EFBDE188278C93A6EFBEE162
:104B900088278C93A6EFBFE188278C93A6EFBCE112
:104BA00088278C9380E08093AA02AA81BB810E940F
:104BB000244F8DE00E942D4FA895A881B9818D9139
:104BC0009C91A0E8B2E08D939C9380E090E0AEE7EA
:104BD000B2E08D939C9370913801706170933801AD
:104BE000709138017F7D70933801A895A8E3B1E0FA
:104BF0008C9185FB81E00EF080E08F93A6EFBDE104
:104C00008C91803081E009F480E09F91892B8F9313
:104C1000A6EFBEE18C91803081E009F480E09F91A5
:104C2000892B8F93A6EFBFE18C91803081E009F44E
:104C300080E09F91892B8F93A6EFBCE18C9180300F
:104C400081E009F480E09F91892B882311F40C9472
:104C5000F525A8E3B1E08C9185FB16F00C94342681
:104C6000A6EFB0E288278C93709138017F7D709316
:104C70003801709138017F7E709338010895ADE15D
:104C8000B2E0E4E5F9EB0E9418530E945A52AEE1FB
:104C9000B3E088278C93EDE1F2E0D2010E94C95481
:104CA00085E60E94275284EF91E0D2018D939C9378
:104CB00082E00E9427520E94C225249687E60E9425
:104CC000235285E090E0D2018D939C9382E00E9474
:104CD00027520E94542E229682E00E94235281E0A5
:104CE00091E00E94285281E0E6EFFDE105E00A93A1
:104CF000A981BA810E94D454A881B981E2EAF0EB7B
:104D00000E9418530E9430550FB681E0481A81E086
:104D1000580A22960FBE11F00C949626E6EFFDE19C
:104D2000AEE1B3E00E94C9540C94092781E091E000
:104D30000E94285281E0E6EFFEE105E00A93A98196
:104D4000BA810E94D454A881B981E2EAF0EB0E94B2
:104D500018530E9430550FB681E0481A81E0580A76
:104D600022960FBE11F00C94BD26E6EFFEE1AEE1F7
:104D7000B3E00E94C9540C94092781E091E00E949D
:104D8000285281E0E6EFFFE105E00A93A981BA81AC
:104D90000E94D454A881B981E2EAF0EB0E94185332
:104DA0000E9430550FB681E0481A81E0580A2296D9
:104DB0000FBE11F00C94E426E6EFFFE1AEE1B3E0A4
:104DC0000E94C9540C94092781E091E00E94285266
:104DD00081E0E6EFFCE105E00A93A981BA810E9437
:104DE000D454A881B981E2EAF0EB0E9418530E94E2
:104DF00030550FB681E0481A81E0580A22960FBE5E
:104E000011F00C940927E6EFFCE1AEE1B3E00E945B
:104E1000C954E4ECF2E0AEE1B3E00E94325511F483
:104E20000C94822782E10E94275281E0EEE1F3E0B8
:104E300005E00A93A981BA810E94D454A881B9815E
:104E4000E2EAF0EB0E9418530E9430550FB682E15F
:104E5000481A80E0580A22960FBE11F00C9482275F
:104E6000EEE1F3E0A4ECB2E00E94C954EEE5F9EB08
:104E70000E9418530E94114F0E94184FE6E3F2EB74
:104E80000E9418530E94114FA6EFBDE10E940B4FE4
:104E90000E94184FEAE3F2EB0E9418530E94114F50
:104EA000A6EFBEE10E940B4F0E94184FEEE3F2EB1B
:104EB0000E9418530E94114FA6EFBFE10E940B4FB2
:104EC0000E94184FE2E4F2EB0E9418530E94114F27
:104ED000A6EFBCE10E940B4F0E94184F0E949A500F
:104EE000A1E1B1E00E940B4FE0ECF4EB0E941853FB
:104EF0000E94114F0E949A50A8E0B1E00E940B4F0F
:104F00000E94184F8AE0EEE1F3E001E00A93A2E587
:104F1000B2E00E94D454A2E5B2E0E0E7F9EB0E94CF
:104F200018530E94305581E009F080E08F93A2E58C
:104F3000B2E0EEE7F8EB0E9418530E94305581E092
:104F400009F080E09F91892B882311F40C94AF27FE
:104F50007091AC0278607093AC020C94B42770919D
:104F6000AC02777F7093AC02ADE1B2E0E2EAF8EB1D
:104F70000E9418530E945A52EDE1F2E0D2010E94C1
:104F8000C95485E60E9427528AE090E0D2018D93B1
:104F90009C9382E00E9427520E94C225249687E6B5
:104FA0000E942352AEE1B3E088278C930895AEE1CE
:104FB000B3E088278C93ADE1B2E0E2E7F9EB0E9421
:104FC00018530E945A52EDE1F2E0D2010E94C954F6
:104FD00085E60E94275288EC90E0D2018D939C9345
:104FE00082E00E9427520E94C225249687E60E94F2
:104FF000235285E090E0D2018D939C9382E00E9441
:1050000027520E94542E229682E00E94235281E071
:1050100091E00E94285281E0E6EFFDE106E00A936C
:10502000A981BA810E94D454A881B981E8EAF0EB41
:105030000E9418530E9430550FB681E0481A81E053
:10504000580A22960FBE11F00C942E28E6EFFDE1CF
:10505000AEE1B3E00E94C9540C94A12881E091E034
:105060000E94285281E0E6EFFEE106E00A93A98162
:10507000BA810E94D454A881B981E8EAF0EB0E9479
:1050800018530E9430550FB681E0481A81E0580A43
:1050900022960FBE11F00C945528E6EFFEE1AEE12A
:1050A000B3E00E94C9540C94A12881E091E00E94D1
:1050B000285281E0E6EFFFE106E00A93A981BA8178
:1050C0000E94D454A881B981E8EAF0EB0E941853F9
:1050D0000E9430550FB681E0481A81E0580A2296A6
:1050E0000FBE11F00C947C28E6EFFFE1AEE1B3E0D7
:1050F0000E94C9540C94A12881E091E00E9428529A
:1051000081E0E6EFFCE106E00A93A981BA810E9402
:10511000D454A881B981E8EAF0EB0E9418530E94A8
:1051200030550FB681E0481A81E0580A22960FBE2A
:1051300011F00C94A128E6EFFCE1AEE1B3E00E948F
:10514000C954E9EDF2E0AEE1B3E00E94325511F44A
:105150000C941A2982E10E94275281E0EEE1F3E0EB
:1051600006E00A93A981BA810E94D454A881B9812A
:10517000E8EAF0EB0E9418530E9430550FB682E126
:10518000481A80E0580A22960FBE11F00C941A2992
:10519000ECE7F9EB0E9418530E94114F0E94184F40
:1051A000EEE1F3E0A9EDB2E00E94C954E6E3F2EBD0
:1051B0000E9418530E94114FA6EFBDE10E940B4FB1
:1051C0000E94184FEAE3F2EB0E9418530E94114F1D
:1051D000A6EFBEE10E940B4F0E94184FEEE3F2EBE8
:1051E0000E9418530E94114FA6EFBFE10E940B4F7F
:1051F0000E94184FE2E4F2EB0E9418530E94114FF4
:10520000A6EFBCE10E940B4F0E94184F0E949A50DB
:10521000A1E1B1E00E940B4FE0ECF4EB0E941853C7
:105220000E94114F0E949A50A8E0B1E00E940B4FDB
:105230000E94184F8BE0EEE1F3E001E00A93A2E553
:10524000B2E00E94D454A2E5B2E0E0E7F9EB0E949C
:1052500018530E94305581E009F080E08F93A2E559
:10526000B2E0EEE7F8EB0E9418530E94305581E05F
:1052700009F080E09F91892B882311F40C944A292E
:105280007091AC0270617093AC0280E08093EE028A
:105290000C9475297091AC027F7E7093AC02AEEED7
:1052A000B2E08C918F5F8C93EEEEF2E0A0E0BEE373
:1052B0000E9442540E94094F0E94184FAEEEB2E085
:1052C0000C914CE00E941A558C930091EE02003034
:1052D00011F00C947529A6EFB2E0E0E9F9EB0E9419
:1052E00018530E945A520E943C3EADE1B2E0E2EAFD
:1052F000F8EB0E9418530E945A52EDE1F2E0D201FD
:105300000E94C95485E60E9427528AE090E0D201AB
:105310008D939C9382E00E9427520E94C22524967E
:1053200087E60E9423520895A89589E080937D0224
:10533000E8E9F9EB0E9418530E94114FA2E4B1E092
:105340000E940B4F0E94184FA2E4B1E00E942A5520
:10535000082F003A18F011F00C94B0290C94C529CC
:1053600081E0E2E4F1E000EA0A93A2E4B1E00E9405
:10537000D454EEE9F9EB0E9418530E94114FA2E4B5
:10538000B1E00E940B4F0E94184FE4EAF9EB0E9433
:1053900018530E94114FADEFB2E00E940B4F0E94D4
:1053A000184F80E08093C20280E08093AB02A89502
:1053B000D201EAEAF9EB0E9418530E945A5285E69C
:1053C0000E94275284E690E0D2018D939C9382E064
:1053D0000E9427520E94C225249687E60E942352EB
:1053E000E6E3F2EB0E9418530E94114FA6EFBDE1D5
:1053F0000E940B4F0E94184FEAE3F2EB0E941853F1
:105400000E94114FA6EFBEE10E940B4F0E94184F61
:10541000EEE3F2EB0E9418530E94114FA6EFBFE19A
:105420000E940B4F0E94184FE2E4F2EB0E941853C7
:105430000E94114FA6EFBCE10E940B4F0E94184F33
:10544000A2ECB2E08C918F5F8C93A6EFBDE1E6E217
:10545000F0EB0E9418530E94305581E009F080E083
:105460008F93A6EFBEE1E6E2F0EB0E9418530E9494
:10547000305581E009F080E09F91892B8F93A6EF52
:10548000BFE1E6E2F0EB0E9418530E94305581E044
:1054900009F080E09F91892B8F93A6EFBCE1E6E2B3
:1054A000F0EB0E9418530E94305581E009F080E033
:1054B0009F91892B8F930091C202043180E010F0FC
:1054C00009F081E09F91892B882311F40C94D7294E
:1054D0000091C202043110F00C94942BADE1B2E0C3
:1054E000E4EBF9EB0E9418530E945A5282E2ADE1BC
:1054F000B2E00E94024F8D9388278C93EDEFF2E08B
:10550000ADE1B2E00E94024F0E94C95482E2ADE1D7
:10551000B2E00E94024F8D9388278C93ADE1B2E0F8
:105520000E940B4F8DE00E941B4F0E94184FADE16F
:10553000B2E00E94244F8DE00E942D4F0E942A4F1E
:10554000709188027F7D70938802709188027F7BC2
:105550007093880280E080938A0288E080938902B9
:1055600070918802706270938802A895A8E8B2E0F2
:105570008C9186FB81E00EF080E08F930091AB026E
:10558000013081E009F080E09F91892B882311F49C
:105590000C94B52AA2E4B1E00E940B4FA2E4B1E062
:1055A0000E94244FA6EFB0E288278C93A6EFBDE1BE
:1055B00088278C93A6EFBEE188278C93A6EFBFE1E6
:1055C00088278C93A6EFBCE188278C9380E080939A
:1055D000AA02709188027F7B7093880270913801D3
:1055E0007E7F7093380170912F037F7D70932F031E
:1055F0008AE10E941B4F8AE10E942D4F7091380171
:10560000726070933801AFE2B3E08C9185FB81E06A
:105610000EF080E08F93A8E3B1E08C9180FB81E0F5
:105620000EF080E09F91892B882311F40C94032BBA
:10563000709138017E7F70933801709138017D7FC1
:105640007093380180E08093AA02E6E3F2EB0E94B7
:1056500018530E94114FA6EFBDE10E940B4F0E940C
:10566000184FEAE3F2EB0E9418530E94114FA6EF85
:10567000BEE10E940B4F0E94184FEEE3F2EB0E9436
:1056800018530E94114FA6EFBFE10E940B4F0E94DA
:10569000184FE2E4F2EB0E9418530E94114FA6EF5C
:1056A000BCE10E940B4F0E94184F81E091E00E94E4
:1056B000285281E0E6EFFEE105E00A93A981BA8174
:1056C0000E94D454A881B981E6E9F0EB0E941853F6
:1056D0000E9430550FB681E0481A81E0580A2296A0
:1056E0000FBE11F00C94812BAFEEB2E0EEEBF9EBB4
:1056F0000E9418530E945A5281E080937D020C94BC
:105700008C2BAFEEB2E0E4ECF9EB0E9418530E9450
:105710005A5283E080937D02AFEEB2E00E940B4FBD
:105720000E94184F0C949F2BEAECF9EB0E9418533F
:105730000E94114F0E94184F83E080937D020895CC
:10574000EEEEF9EB0E9418530E94114FADEAB2E061
:105750000E940B4F0E94184F81E08A93ADEAB2E09D
:10576000E0ECF4EB0E9418532FEF0E947752AAE16D
:10577000B1E00C9300911A0141E0040FABE1B1E0FC
:105780000C93ADEAB2E00E942A55ACE1B1E08C93F3
:1057900000911C0140911A01041BACE1B1E00C9393
:1057A00080911B01EDEAF2E000911C010A93ACE04C
:1057B000B2E00E94D454E2EFF9EB0E9418530E9429
:1057C000114FACE0B2E00E940B4F0E94184FECE08A
:1057D000F2E0A1E3B3E00E94C9540E94F02B0895C7
:1057E00080E08093C202E6EFF9EB0E9418530E941A
:1057F000114F0E94184FD201EAEAF9EB0E941853A8
:105800000E945A5285E60E94275284E690E0D20117
:105810008D939C9382E00E9427520E94C225249679
:1058200087E60E942352E6E3F2EB0E9418530E949F
:10583000114FA6EFBDE10E940B4F0E94184FEAE303
:10584000F2EB0E9418530E94114FA6EFBEE10E9496
:105850000B4F0E94184FEEE3F2EB0E9418530E9488
:10586000114FA6EFBFE10E940B4F0E94184FE2E4D8
:10587000F2EB0E9418530E94114FA6EFBCE10E9468
:105880000B4F0E94184FA2ECB2E08C918F5F8C936B
:10589000A6EFBEE1E6E2F0EB0E9418530E943055FD
:1058A00081E009F080E08F930091C202083C80E023
:1058B00010F009F081E09F91892B882311F40C945A
:1058C000FB2B80E08093C202ADE1B2E0EAEFF9EB9E
:1058D0000E9418530E945A52E1E3F3E0ADE1B2E0B6
:1058E0000E94024F0E94C954EDE1F2E0D2010E94F1
:1058F000C95485E60E94275284E690E0D2018D9338
:105900009C9382E00E9427520E94C225249687E63B
:105910000E942352E6E3F2EB0E9418530E94114FBB
:10592000A6EFBDE10E940B4F0E94184FEAE3F2EB95
:105930000E9418530E94114FA6EFBEE10E940B4F28
:105940000E94184FEEE3F2EB0E9418530E94114F91
:10595000A6EFBFE10E940B4F0E94184FE2E4F2EB6A
:105960000E9418530E94114FA6EFBCE10E940B4FFA
:105970000E94184FA2ECB2E08C918F5F8C93A6EF3F
:10598000BCE1E6E2F0EB0E9418530E94305581E042
:1059900009F080E08F9381E091E00E94285286E038
:1059A000E6EFFEE105E00A93A981BA810E94D45492
:1059B000A881B981E0EBF0EB0E9418530E943055AA
:1059C0000FB681E0481A81E0580A22960FBE81E0A6
:1059D00009F080E09F91892B8F9381E091E00E94F4
:1059E000285286E0E6EFFFE105E00A93A981BA813B
:1059F0000E94D454A881B981E0EBF0EB0E941853C7
:105A00000E9430550FB681E0481A81E0580A22966C
:105A10000FBE81E009F080E09F91892B8F93009168
:105A2000C202083C80E010F009F081E09F91892BD0
:105A30008F93A0E2B0E00C9105FB81E00EF480E0D2
:105A40009F91892B8F9381E091E00E94285289E0F9
:105A5000E6EFFEE10AE00A93A981BA810E94D454DC
:105A6000A881B981E4E0FAEB0E9418530E943055F6
:105A70000FB681E0481A81E0580A22960FBE81E0F5
:105A800009F080E09F91892B8F93A6EFBEE1E6E2BB
:105A9000F0EB0E9418530E94305581E009F080E03D
:105AA0009F91892B882311F40C94642CA6EFBCE100
:105AB000E6E2F0EB0E9418530E94305581E009F0B5
:105AC00080E08F9381E091E00E94285289E0E6EF28
:105AD000FEE10AE00A93A981BA810E94D454A88108
